{
  "_format": "hh-sol-artifact-1",
  "contractName": "PriceFeed",
  "sourceName": "contracts/PriceFeed.sol",
  "abi": [
    {
      "inputs": [
        {
          "internalType": "uint256",
          "name": "initialMaxAgeSeconds",
          "type": "uint256"
        },
        {
          "internalType": "address",
          "name": "admin",
          "type": "address"
        },
        {
          "internalType": "address",
          "name": "developer",
          "type": "address"
        }
      ],
      "stateMutability": "nonpayable",
      "type": "constructor"
    },
    {
      "inputs": [],
      "name": "AccessControlBadConfirmation",
      "type": "error"
    },
    {
      "inputs": [
        {
          "internalType": "address",
          "name": "account",
          "type": "address"
        },
        {
          "internalType": "bytes32",
          "name": "neededRole",
          "type": "bytes32"
        }
      ],
      "name": "AccessControlUnauthorizedAccount",
      "type": "error"
    },
    {
      "inputs": [
        {
          "internalType": "address",
          "name": "feed",
          "type": "address"
        },
        {
          "internalType": "int256",
          "name": "answer",
          "type": "int256"
        }
      ],
      "name": "BadAnswer",
      "type": "error"
    },
    {
      "inputs": [
        {
          "internalType": "address",
          "name": "feed",
          "type": "address"
        },
        {
          "internalType": "uint80",
          "name": "roundId",
          "type": "uint80"
        },
        {
          "internalType": "uint80",
          "name": "answeredInRound",
          "type": "uint80"
        }
      ],
      "name": "BadRound",
      "type": "error"
    },
    {
      "inputs": [
        {
          "internalType": "address",
          "name": "feed",
          "type": "address"
        }
      ],
      "name": "InvalidAggregator",
      "type": "error"
    },
    {
      "inputs": [
        {
          "internalType": "address",
          "name": "feed",
          "type": "address"
        }
      ],
      "name": "InvalidFeedAddress",
      "type": "error"
    },
    {
      "inputs": [
        {
          "internalType": "address",
          "name": "feed",
          "type": "address"
        },
        {
          "internalType": "uint256",
          "name": "updatedAt",
          "type": "uint256"
        },
        {
          "internalType": "uint256",
          "name": "maxAgeSeconds",
          "type": "uint256"
        }
      ],
      "name": "StaleAnswer",
      "type": "error"
    },
    {
      "anonymous": false,
      "inputs": [
        {
          "indexed": false,
          "internalType": "uint256",
          "name": "oldMaxAgeSeconds",
          "type": "uint256"
        },
        {
          "indexed": false,
          "internalType": "uint256",
          "name": "newMaxAgeSeconds",
          "type": "uint256"
        }
      ],
      "name": "MaxAgeUpdated",
      "type": "event"
    },
    {
      "anonymous": false,
      "inputs": [
        {
          "indexed": true,
          "internalType": "bytes32",
          "name": "role",
          "type": "bytes32"
        },
        {
          "indexed": true,
          "internalType": "bytes32",
          "name": "previousAdminRole",
          "type": "bytes32"
        },
        {
          "indexed": true,
          "internalType": "bytes32",
          "name": "newAdminRole",
          "type": "bytes32"
        }
      ],
      "name": "RoleAdminChanged",
      "type": "event"
    },
    {
      "anonymous": false,
      "inputs": [
        {
          "indexed": true,
          "internalType": "bytes32",
          "name": "role",
          "type": "bytes32"
        },
        {
          "indexed": true,
          "internalType": "address",
          "name": "account",
          "type": "address"
        },
        {
          "indexed": true,
          "internalType": "address",
          "name": "sender",
          "type": "address"
        }
      ],
      "name": "RoleGranted",
      "type": "event"
    },
    {
      "anonymous": false,
      "inputs": [
        {
          "indexed": true,
          "internalType": "bytes32",
          "name": "role",
          "type": "bytes32"
        },
        {
          "indexed": true,
          "internalType": "address",
          "name": "account",
          "type": "address"
        },
        {
          "indexed": true,
          "internalType": "address",
          "name": "sender",
          "type": "address"
        }
      ],
      "name": "RoleRevoked",
      "type": "event"
    },
    {
      "inputs": [],
      "name": "DEFAULT_ADMIN_ROLE",
      "outputs": [
        {
          "internalType": "bytes32",
          "name": "",
          "type": "bytes32"
        }
      ],
      "stateMutability": "view",
      "type": "function"
    },
    {
      "inputs": [],
      "name": "DEVELOPER_ROLE",
      "outputs": [
        {
          "internalType": "bytes32",
          "name": "",
          "type": "bytes32"
        }
      ],
      "stateMutability": "view",
      "type": "function"
    },
    {
      "inputs": [
        {
          "internalType": "address",
          "name": "tokenFeed",
          "type": "address"
        }
      ],
      "name": "getDataFeed",
      "outputs": [
        {
          "internalType": "int256",
          "name": "answer",
          "type": "int256"
        },
        {
          "internalType": "uint8",
          "name": "dec",
          "type": "uint8"
        },
        {
          "internalType": "uint256",
          "name": "updatedAt",
          "type": "uint256"
        }
      ],
      "stateMutability": "view",
      "type": "function"
    },
    {
      "inputs": [
        {
          "internalType": "bytes32",
          "name": "role",
          "type": "bytes32"
        }
      ],
      "name": "getRoleAdmin",
      "outputs": [
        {
          "internalType": "bytes32",
          "name": "",
          "type": "bytes32"
        }
      ],
      "stateMutability": "view",
      "type": "function"
    },
    {
      "inputs": [
        {
          "internalType": "bytes32",
          "name": "role",
          "type": "bytes32"
        },
        {
          "internalType": "address",
          "name": "account",
          "type": "address"
        }
      ],
      "name": "grantRole",
      "outputs": [],
      "stateMutability": "nonpayable",
      "type": "function"
    },
    {
      "inputs": [
        {
          "internalType": "bytes32",
          "name": "role",
          "type": "bytes32"
        },
        {
          "internalType": "address",
          "name": "account",
          "type": "address"
        }
      ],
      "name": "hasRole",
      "outputs": [
        {
          "internalType": "bool",
          "name": "",
          "type": "bool"
        }
      ],
      "stateMutability": "view",
      "type": "function"
    },
    {
      "inputs": [],
      "name": "maxAgeSeconds",
      "outputs": [
        {
          "internalType": "uint256",
          "name": "",
          "type": "uint256"
        }
      ],
      "stateMutability": "view",
      "type": "function"
    },
    {
      "inputs": [
        {
          "internalType": "bytes32",
          "name": "role",
          "type": "bytes32"
        },
        {
          "internalType": "address",
          "name": "callerConfirmation",
          "type": "address"
        }
      ],
      "name": "renounceRole",
      "outputs": [],
      "stateMutability": "nonpayable",
      "type": "function"
    },
    {
      "inputs": [
        {
          "internalType": "bytes32",
          "name": "role",
          "type": "bytes32"
        },
        {
          "internalType": "address",
          "name": "account",
          "type": "address"
        }
      ],
      "name": "revokeRole",
      "outputs": [],
      "stateMutability": "nonpayable",
      "type": "function"
    },
    {
      "inputs": [
        {
          "internalType": "uint256",
          "name": "newMaxAgeSeconds",
          "type": "uint256"
        }
      ],
      "name": "setMaxAgeSeconds",
      "outputs": [],
      "stateMutability": "nonpayable",
      "type": "function"
    },
    {
      "inputs": [
        {
          "internalType": "bytes4",
          "name": "interfaceId",
          "type": "bytes4"
        }
      ],
      "name": "supportsInterface",
      "outputs": [
        {
          "internalType": "bool",
          "name": "",
          "type": "bool"
        }
      ],
      "stateMutability": "view",
      "type": "function"
    }
  ],
  "bytecode": "0x608060405234801561001057600080fd5b506040516113963803806113968339818101604052810190610032919061028e565b8260018190555061004c6000801b8361008660201b60201c565b5061007d7f4504b9dfd7400a1522f49a8b4a100552da9236849581fd59b7363eb48c6a474c8261008660201b60201c565b505050506102e1565b6000610098838361018360201b60201c565b61017857600160008085815260200190815260200160002060000160008473ffffffffffffffffffffffffffffffffffffffff1673ffffffffffffffffffffffffffffffffffffffff16815260200190815260200160002060006101000a81548160ff0219169083151502179055506101156101ed60201b60201c565b73ffffffffffffffffffffffffffffffffffffffff168273ffffffffffffffffffffffffffffffffffffffff16847f2f8788117e7eff1d82e926ec794901d17c78024a50270940304540a733656f0d60405160405180910390a46001905061017d565b600090505b92915050565b600080600084815260200190815260200160002060000160008373ffffffffffffffffffffffffffffffffffffffff1673ffffffffffffffffffffffffffffffffffffffff16815260200190815260200160002060009054906101000a900460ff16905092915050565b600033905090565b600080fd5b6000819050919050565b61020d816101fa565b811461021857600080fd5b50565b60008151905061022a81610204565b92915050565b600073ffffffffffffffffffffffffffffffffffffffff82169050919050565b600061025b82610230565b9050919050565b61026b81610250565b811461027657600080fd5b50565b60008151905061028881610262565b92915050565b6000806000606084860312156102a7576102a66101f5565b5b60006102b58682870161021b565b93505060206102c686828701610279565b92505060406102d786828701610279565b9150509250925092565b6110a6806102f06000396000f3fe608060405234801561001057600080fd5b50600436106100a95760003560e01c806336568abe1161007157806336568abe1461017a5780638d7c6612146101965780639103a0e0146101b257806391d14854146101d0578063a217fddf14610200578063d547741f1461021e576100a9565b806301ffc9a7146100ae57806314d04ea6146100de578063248a9ca3146100fc5780632f2ff15d1461012c578063344c833414610148575b600080fd5b6100c860048036038101906100c39190610ae0565b61023a565b6040516100d59190610b28565b60405180910390f35b6100e66102b4565b6040516100f39190610b5c565b60405180910390f35b61011660048036038101906101119190610bad565b6102ba565b6040516101239190610be9565b60405180910390f35b61014660048036038101906101419190610c62565b6102d9565b005b610162600480360381019061015d9190610ca2565b6102fb565b60405161017193929190610d04565b60405180910390f35b610194600480360381019061018f9190610c62565b610621565b005b6101b060048036038101906101ab9190610d67565b61069c565b005b6101ba610712565b6040516101c79190610be9565b60405180910390f35b6101ea60048036038101906101e59190610c62565b610736565b6040516101f79190610b28565b60405180910390f35b6102086107a0565b6040516102159190610be9565b60405180910390f35b61023860048036038101906102339190610c62565b6107a7565b005b60007f7965db0b000000000000000000000000000000000000000000000000000000007bffffffffffffffffffffffffffffffffffffffffffffffffffffffff1916827bffffffffffffffffffffffffffffffffffffffffffffffffffffffff191614806102ad57506102ac826107c9565b5b9050919050565b60015481565b6000806000838152602001908152602001600020600101549050919050565b6102e2826102ba565b6102eb81610833565b6102f58383610847565b50505050565b60008060008073ffffffffffffffffffffffffffffffffffffffff168473ffffffffffffffffffffffffffffffffffffffff160361037057836040517f9f511c1c0000000000000000000000000000000000000000000000000000000081526004016103679190610da3565b60405180910390fd5b60008473ffffffffffffffffffffffffffffffffffffffff163b036103cc57836040517f5c8bf34d0000000000000000000000000000000000000000000000000000000081526004016103c39190610da3565b60405180910390fd5b60008490506000808273ffffffffffffffffffffffffffffffffffffffff1663feaf968c6040518163ffffffff1660e01b815260040160a060405180830381865afa92505050801561043c57506040513d601f19601f820116820180604052508101906104399190610e41565b60015b61047d57866040517f5c8bf34d0000000000000000000000000000000000000000000000000000000081526004016104749190610da3565b60405180910390fd5b849650839a5081985080955050505050508169ffffffffffffffffffff168169ffffffffffffffffffff1610156104ef578682826040517f81cebe2b0000000000000000000000000000000000000000000000000000000081526004016104e693929190610ecb565b60405180910390fd5b600086136105365786866040517fa8e4dc3e00000000000000000000000000000000000000000000000000000000815260040161052d929190610f02565b60405180910390fd5b60006001549050600081146105a557600085148061055e575080854261055c9190610f5a565b115b156105a4578785826040517ffac0852b00000000000000000000000000000000000000000000000000000000815260040161059b93929190610f8e565b60405180910390fd5b5b8373ffffffffffffffffffffffffffffffffffffffff1663313ce5676040518163ffffffff1660e01b8152600401602060405180830381865afa1580156105f0573d6000803e3d6000fd5b505050506040513d601f19601f820116820180604052508101906106149190610ff1565b9550505050509193909250565b610629610938565b73ffffffffffffffffffffffffffffffffffffffff168173ffffffffffffffffffffffffffffffffffffffff161461068d576040517f6697b23200000000000000000000000000000000000000000000000000000000815260040160405180910390fd5b6106978282610940565b505050565b7f4504b9dfd7400a1522f49a8b4a100552da9236849581fd59b7363eb48c6a474c6106c681610833565b60006001549050826001819055507f1293e51547e7dfe0f71bcd8fbe56949db0c3162cb40fe283a5b45544b6cafac4818460405161070592919061101e565b60405180910390a1505050565b7f4504b9dfd7400a1522f49a8b4a100552da9236849581fd59b7363eb48c6a474c81565b600080600084815260200190815260200160002060000160008373ffffffffffffffffffffffffffffffffffffffff1673ffffffffffffffffffffffffffffffffffffffff16815260200190815260200160002060009054906101000a900460ff16905092915050565b6000801b81565b6107b0826102ba565b6107b981610833565b6107c38383610940565b50505050565b60007f01ffc9a7000000000000000000000000000000000000000000000000000000007bffffffffffffffffffffffffffffffffffffffffffffffffffffffff1916827bffffffffffffffffffffffffffffffffffffffffffffffffffffffff1916149050919050565b6108448161083f610938565b610a32565b50565b60006108538383610736565b61092d57600160008085815260200190815260200160002060000160008473ffffffffffffffffffffffffffffffffffffffff1673ffffffffffffffffffffffffffffffffffffffff16815260200190815260200160002060006101000a81548160ff0219169083151502179055506108ca610938565b73ffffffffffffffffffffffffffffffffffffffff168273ffffffffffffffffffffffffffffffffffffffff16847f2f8788117e7eff1d82e926ec794901d17c78024a50270940304540a733656f0d60405160405180910390a460019050610932565b600090505b92915050565b600033905090565b600061094c8383610736565b15610a2757600080600085815260200190815260200160002060000160008473ffffffffffffffffffffffffffffffffffffffff1673ffffffffffffffffffffffffffffffffffffffff16815260200190815260200160002060006101000a81548160ff0219169083151502179055506109c4610938565b73ffffffffffffffffffffffffffffffffffffffff168273ffffffffffffffffffffffffffffffffffffffff16847ff6391f5c32d9c69d2a47ea670b442974b53935d1edc7fd64eb21e047a839171b60405160405180910390a460019050610a2c565b600090505b92915050565b610a3c8282610736565b610a7f5780826040517fe2517d3f000000000000000000000000000000000000000000000000000000008152600401610a76929190611047565b60405180910390fd5b5050565b600080fd5b60007fffffffff0000000000000000000000000000000000000000000000000000000082169050919050565b610abd81610a88565b8114610ac857600080fd5b50565b600081359050610ada81610ab4565b92915050565b600060208284031215610af657610af5610a83565b5b6000610b0484828501610acb565b91505092915050565b60008115159050919050565b610b2281610b0d565b82525050565b6000602082019050610b3d6000830184610b19565b92915050565b6000819050919050565b610b5681610b43565b82525050565b6000602082019050610b716000830184610b4d565b92915050565b6000819050919050565b610b8a81610b77565b8114610b9557600080fd5b50565b600081359050610ba781610b81565b92915050565b600060208284031215610bc357610bc2610a83565b5b6000610bd184828501610b98565b91505092915050565b610be381610b77565b82525050565b6000602082019050610bfe6000830184610bda565b92915050565b600073ffffffffffffffffffffffffffffffffffffffff82169050919050565b6000610c2f82610c04565b9050919050565b610c3f81610c24565b8114610c4a57600080fd5b50565b600081359050610c5c81610c36565b92915050565b60008060408385031215610c7957610c78610a83565b5b6000610c8785828601610b98565b9250506020610c9885828601610c4d565b9150509250929050565b600060208284031215610cb857610cb7610a83565b5b6000610cc684828501610c4d565b91505092915050565b6000819050919050565b610ce281610ccf565b82525050565b600060ff82169050919050565b610cfe81610ce8565b82525050565b6000606082019050610d196000830186610cd9565b610d266020830185610cf5565b610d336040830184610b4d565b949350505050565b610d4481610b43565b8114610d4f57600080fd5b50565b600081359050610d6181610d3b565b92915050565b600060208284031215610d7d57610d7c610a83565b5b6000610d8b84828501610d52565b91505092915050565b610d9d81610c24565b82525050565b6000602082019050610db86000830184610d94565b92915050565b600069ffffffffffffffffffff82169050919050565b610ddd81610dbe565b8114610de857600080fd5b50565b600081519050610dfa81610dd4565b92915050565b610e0981610ccf565b8114610e1457600080fd5b50565b600081519050610e2681610e00565b92915050565b600081519050610e3b81610d3b565b92915050565b600080600080600060a08688031215610e5d57610e5c610a83565b5b6000610e6b88828901610deb565b9550506020610e7c88828901610e17565b9450506040610e8d88828901610e2c565b9350506060610e9e88828901610e2c565b9250506080610eaf88828901610deb565b9150509295509295909350565b610ec581610dbe565b82525050565b6000606082019050610ee06000830186610d94565b610eed6020830185610ebc565b610efa6040830184610ebc565b949350505050565b6000604082019050610f176000830185610d94565b610f246020830184610cd9565b9392505050565b7f4e487b7100000000000000000000000000000000000000000000000000000000600052601160045260246000fd5b6000610f6582610b43565b9150610f7083610b43565b9250828203905081811115610f8857610f87610f2b565b5b92915050565b6000606082019050610fa36000830186610d94565b610fb06020830185610b4d565b610fbd6040830184610b4d565b949350505050565b610fce81610ce8565b8114610fd957600080fd5b50565b600081519050610feb81610fc5565b92915050565b60006020828403121561100757611006610a83565b5b600061101584828501610fdc565b91505092915050565b60006040820190506110336000830185610b4d565b6110406020830184610b4d565b9392505050565b600060408201905061105c6000830185610d94565b6110696020830184610bda565b939250505056fea26469706673582212204f23706e6d0cf4cc6940b9677048342c65bd8380723cafab6bc25c097cc2380564736f6c634300081c0033",
  "linkReferences": {},
  "deployedLinkReferences": {}
}